:100000000C942A000C943C000C943C000C943C0092
:100010000C943C000C943C000C943C000C943C0070
:100020000C943C000C943C000C946B030C943C002E
:100030000C943C000C943C000C943C000C943C0050
:100040000C943C000C943C000C943C000C943C0040
:100050000C943C0011241FBECFE5D8E0DEBFCDBF1D
:1000600012E0A0E6B0E001C01D92AC35B107E1F7A7
:100070000E94D4020C94A3050C940000DF93CF934C
:1000800000D0CDB7DEB789836A838A81813009F0D9
:100090006DC089818830A0F4ABE3B0E0EBE3F0E021
:1000A0008081482F8981282F30E081E090E0022E66
:1000B00002C0880F991F0A94E2F7842B8C93C8C062
:1000C00089818830C8F089818031B0F4A8E3B0E03C
:1000D000E8E3F0E08081482F8981882F90E008973D
:1000E0009C0181E090E0022E02C0880F991F0A94C3
:1000F000E2F7842B8C93ACC089818031C8F0898170
:100100008831B0F4A5E3B0E0E5E3F0E08081482F6A
:100110008981882F90E040979C0181E090E0022E39
:1001200002C0880F991F0A94E2F7842B8C9390C029
:100130008981883108F48CC08981803208F088C0B8
:10014000A2E3B0E0E2E3F0E08081482F8981882FCC
:1001500090E048979C0181E090E0022E02C0880F59
:10016000991F0A94E2F7842B8C9372C08A818823AA
:1001700009F06EC089818830A8F4ABE3B0E0EBE30E
:10018000F0E08081482F8981282F30E081E090E0E5
:10019000022E02C0880F991F0A94E2F780958423EB
:1001A0008C9356C089818830D0F089818031B8F431
:1001B000A8E3B0E0E8E3F0E08081482F8981882F50
:1001C00090E008979C0181E090E0022E02C0880F29
:1001D000991F0A94E2F7809584238C9339C0898112
:1001E0008031D0F089818831B8F4A5E3B0E0E5E34F
:1001F000F0E08081482F8981882F90E040979C0112
:1002000081E090E0022E02C0880F991F0A94E2F765
:10021000809584238C931CC089818831C8F08981A2
:100220008032B0F4A2E3B0E0E2E3F0E08081482F56
:100230008981882F90E048979C0181E090E0022E10
:1002400002C0880F991F0A94E2F7809584238C934B
:100250000F900F90CF91DF910895DF93CF9300D04F
:10026000CDB7DEB789838981883098F4E9E3F0E07F
:100270008081282F30E08981882F90E0A90102C079
:10028000559547958A95E2F7CA01582F51705A83C0
:1002900050C089818830B8F089818031A0F4E6E3CC
:1002A000F0E08081282F30E08981882F90E0089746
:1002B000A90102C0559547958A95E2F7CA01582FC2
:1002C00051705A8336C089818031B8F08981883174
:1002D000A0F4E3E3F0E08081282F30E08981882FCB
:1002E00090E04097A90102C0559547958A95E2F79D
:1002F000CA01582F51705A831CC089818831B8F0C7
:1003000089818032A0F4E0E3F0E08081282F30E0A2
:100310008981882F90E04897A90102C0559547959B
:100320008A95E2F7CA01582F51705A8302C088E0BB
:100330008A838A810F900F90CF91DF910895DF9388
:10034000CF9300D0CDB7DEB789836A838A818823B3
:1003500009F071C089818830A8F4AAE3B0E0EAE32B
:10036000F0E08081482F8981282F30E081E090E003
:10037000022E02C0880F991F0A94E2F78095842309
:100380008C93C7C089818830D0F089818031B8F4DE
:10039000A7E3B0E0E7E3F0E08081482F8981882F70
:1003A00090E008979C0181E090E0022E02C0880F47
:1003B000991F0A94E2F7809584238C93AAC08981BF
:1003C0008031D0F089818831B8F4A4E3B0E0E4E36F
:1003D000F0E08081482F8981882F90E040979C0130
:1003E00081E090E0022E02C0880F991F0A94E2F784
:1003F000809584238C938DC08981883108F489C0CD
:100400008981803208F085C0A1E3B0E0E1E3F0E04B
:100410008081482F8981882F90E048979C0181E056
:1004200090E0022E02C0880F991F0A94E2F780958F
:1004300084238C936EC08A81813009F06AC08981DF
:100440008830A0F4AAE3B0E0EAE3F0E08081482F2E
:100450008981282F30E081E090E0022E02C0880FD1
:10046000991F0A94E2F7842B8C9353C089818830BA
:10047000C8F089818031B0F4A7E3B0E0E7E3F0E0B1
:100480008081482F8981882F90E008979C0181E026
:1004900090E0022E02C0880F991F0A94E2F7842B85
:1004A0008C9337C089818031C8F089818831B0F45C
:1004B000A4E3B0E0E4E3F0E08081482F8981882F55
:1004C00090E040979C0181E090E0022E02C0880FEE
:1004D000991F0A94E2F7842B8C931BC08981883181
:1004E000C0F089818032A8F4A1E3B0E0E1E3F0E05C
:1004F0008081482F8981882F90E048979C0181E076
:1005000090E0022E02C0880F991F0A94E2F7842B14
:100510008C930F900F90CF91DF910895DF93CF933D
:10052000CDB7DEB7A3E5B0E0E3E5F0E08081877BFF
:100530008C93A3E5B0E0E3E5F0E0808188608C93E4
:10054000ECE5F0E08DE78083A3E5B0E0E3E5F0E0E3
:100550008081887F8C93A3E5B0E0E3E5F0E08081C3
:1005600082608C93A3E5B0E0E3E5F0E080818160F8
:100570008C93A9E5B0E0E9E5F0E0808182608C939E
:10058000CF91DF910895DF93CF93CDB7DEB7A3E589
:10059000B0E0E3E5F0E08081887F8C93ECE5F0E06B
:1005A0001082CF91DF910895DF93CF93CDB7DEB75F
:1005B0008CE061E00E949F018DE061E00E949F015C
:1005C0008EE061E00E949F010E94FC03AFE5B0E075
:1005D000EFE5F0E0808180688C932CE033E080E0F0
:1005E00068EE73E0A9010E943D0426E233E081E059
:1005F00060ED77E0A9010E943D0421E533E082E04F
:1006000068EB7BE0A9010E943D040E94990480E010
:1006100090E0CF91DF910895DF93CF93CDB7DEB710
:100620009091600081E08927809360008091600054
:10063000813029F48CE061E00E943E0004C08CE02F
:1006400060E00E943E00CF91DF910895DF93CF9349
:10065000CDB7DEB79091610081E08927809361007A
:1006600080916100813029F48DE061E00E943E00BC
:1006700004C08DE060E00E943E00809162008F5FC8
:100680008093620080916200863041F48CE093E0B8
:100690000E94E70481E593E00E94E704CF91DF9197
:1006A0000895DF93CF93CDB7DEB79091630081E0DB
:1006B00089278093630080916300813029F48EE064
:1006C00061E00E943E0004C08EE060E00E943E00B7
:1006D000CF91DF9108951F920F920FB60F921124C0
:1006E000EF92FF920F931F932F933F934F935F933C
:1006F0006F937F938F939F93AF93BF93EF93FF93EA
:10070000DF93CF930F92CDB7DEB7809164009091C5
:100710006500A0916600B09167000196A11DB11D12
:100720008093640090936500A0936600B093670087
:10073000198246C08981282F30E0C901880F991F8E
:10074000880F991F820F931FFC01E559FF4F80818D
:100750009181009791F1E0906400F0906500009124
:100760006600109167008981282F30E0C901880F49
:10077000991F880F991F820F931FFC01E759FF4FA4
:10078000808191819C0140E050E0C801B7010E9446
:100790008105DC01CB010097A105B10571F48981C8
:1007A000282F30E0C901880F991F880F991F820FE9
:1007B000931FFC01E859FF4F108289818F5F898365
:1007C0008981843608F4B6CF0F90CF91DF91FF91E5
:1007D000EF91BF91AF919F918F917F916F915F91B9
:1007E0004F913F912F911F910F91FF90EF900F909C
:1007F0000FBE0F901F901895DF93CF930F92CDB738
:10080000DEB70E948E021982198230C08981282F9A
:1008100030E0C901880F991F880F991F820F931F1D
:10082000FC01E859FF4F82E080838981282F30E066
:10083000C901880F991F880F991F820F931FFC0110
:10084000E759FF4F118210828981282F30E0C901BA
:10085000880F991F880F991F820F931FFC01E5597C
:10086000FF4F1182108289818F5F8983898184364D
:1008700068F20F90CF91DF910895DF93CF9300D06E
:1008800000D000D0CDB7DEB78A837C836B835E83D4
:100890004D838A81282F30E0C901880F991F880F66
:1008A000991F820F931FFC01E559FF4F80819181B1
:1008B000009719F081E0898332C08A81282F30E0C7
:1008C000C901880F991F880F991F820F931FFC0180
:1008D000E859FF4F82E080838A81282F30E0C901E8
:1008E000880F991F880F991F820F931FFC01E759EA
:1008F000FF4F8B819C81918380838A81282F30E0F8
:10090000C901880F991F880F991F820F931FFC013F
:10091000E559FF4F8D819E81918380831982898162
:1009200026960FB6F894DEBF0FBECDBFCF91DF91F4
:100930000895DF93CF930F92CDB7DEB7198242C0EF
:100940008981282F30E0C901880F991F880F991FCE
:10095000820F931FFC01E859FF4F8081882379F5AE
:100960008981282F30E0C901880F991F880F991FAE
:10097000820F931FFC01E859FF4F81E0808389813A
:10098000282F30E0C901880F991F880F991F820F07
:10099000931FFC01E559FF4F0190F081E02D09956F
:1009A0008981282F30E0C901880F991F880F991F6E
:1009B000820F931FFC01E859FF4F82E080838981F9
:1009C0008F5F89838981843608F4BACFB7CFDF93EC
:1009D000CF9300D00F92CDB7DEB79B838A83198265
:1009E00045C08981282F30E0C901880F991F880FE1
:1009F000991F820F931FFC01E559FF4F2081318120
:100A00008A819B812817390771F58981282F30E069
:100A1000C901880F991F880F991F820F931FFC012E
:100A2000E559FF4F118210828981282F30E0C901DA
:100A3000880F991F880F991F820F931FFC01E85997
:100A4000FF4F82E080838981282F30E0C901880F21
:100A5000991F880F991F820F931FFC01E759FF4FC1
:100A60001182108207C089818F5F898389818436D2
:100A700008F4B7CF0F900F900F90CF91DF910895AA
:100A8000DF93CF930F92CDB7DEB70E94C3021982D6
:100A9000198230C08981282F30E0C901880F991F41
:100AA000880F991F820F931FFC01E859FF4F82E0C6
:100AB00080838981282F30E0C901880F991F880F12
:100AC000991F820F931FFC01E759FF4F118210827B
:100AD0008981282F30E0C901880F991F880F991F3D
:100AE000820F931FFC01E559FF4F1182108289810B
:100AF0008F5F89838981843668F20F90CF91DF916F
:100B00000895A1E21A2EAA1BBB1BFD010DC0AA1F4E
:100B1000BB1FEE1FFF1FA217B307E407F50720F066
:100B2000A21BB30BE40BF50B661F771F881F991FE1
:100B30001A9469F760957095809590959B01AC012A
:0A0B4000BD01CF010895F894FFCF26
:00000001FF
